:1010000000000420751300005D1300005F13000052
:10101000611300006313000065130000000000006E
:101020000000000000000000000000006713000046
:1010300069130000000000006B1300006D13000036
:101040006F1300006F1300006F1300006F13000098
:101050006F1300006F1300006F1300006F13000088
:101060006F1300006F1300006F1300006F13000078
:101070006F1300006F1300006F1300006F13000068
:101080006F1300006F1300006F1300006F13000058
:101090006F1300006F1300006F1300006F13000048
:1010A0006F1300006F1300006F1300006F13000038
:1010B0006F1300006F13000000000000000000002C
:1010C0006F1300006F1300006F1300006F13000018
:1010D0006F1300006F1300006F1300006F13000008
:1010E0006F1300006F1300006F130000000000007A
:1010F000000000006F130000000000006F130000EC
:1011000000000000000000000000000000000000DF
:1011100000000000000000000000000000000000CF
:1011200000000000000000000000000000000000BF
:1011300000000000000000000000000000000000AF
:10114000000000000000000000000000000000009F
:10115000000000000000000000000000000000008F
:10116000000000000000000000000000000000007F
:10117000000000000000000000000000000000006F
:10118000000000000000000000000000000000005F
:10119000000000000000000000000000000000004F
:1011A000000000000000000000000000000000003F
:1011B000000000000000000000000000000000002F
:1011C000000000000000000000000000000000001F
:1011D000000000000000000000000000000000000F
:1011E00000000000000000000000000000000000FF
:1011F00000000000000000000000000000000000EF
:10120000354936480A1A02D0072291438D4634499F
:1012100034480A1A06D00722914381F30988022232
:1012200082F3148830483149314A00F044F831489B
:101230003149324A00F03FF831483249324A00F031
:101240003AF832483249334A00F035F832483349E7
:10125000334A00F030F833483349344A00F02BF871
:1012600033483449344A00F026F8344834490022DF
:1012700000F02CF833483449002200F027F83348B6
:101280003349091A082902DB002202604160314A11
:1012900090471F481F49884205D00268043003B4B4
:1012A000904703BCF7E700208646EC46002000216B
:1012B000294A9047FEE7884207D0521A05D00378A2
:1012C00001300B700131013AF9D17047884202D0E8
:1012D00002700130FAE770470000042000E00320AC
:1012E0000000042000000420C817000008000020AF
:1012F0000C000020D0130000D01300004C17000099
:10130000C817000008000020080000204C1700004B
:101310004C1700004C1700004C1700004C17000041
:101320004C1700004C1700004C170000C6170000B7
:10133000CC1700000C0000200C0000200C00002046
:101340000C0000200C0000200C0000200C000020ED
:101350000C2000209D13000045150000FEE7FEE76D
:10136000FEE7FEE7FEE7FEE7FEE7FEE7FEE7FEE755
:1013700000F002B8FFF7FCBF0F484FF007018843A9
:1013800085460E4880470E48016841F470010160AF
:10139000BFF34F8FBFF36F8FFFF732BF09480A4982
:1013A0000A4A884207D0521A05D0037801300B70E0
:1013B0000131013AF9D17047000004209515000071
:1013C00088ED00E04C170000080000200800002015
:1013D00003682F2B10B5044604D9074940F2CD10FD
:1013E00000F0A2F823681F2B83BF03F01F030348FC
:1013F00023604FF0A04010BD4C17000000030050C8
:10140000032813B5044603D90849472000F08CF897
:10141000074B01A81B5D0193FFF7DAFF019A012337
:101420009340C0F8083502B010BD00BF7A17000025
:10143000B617000008B50020FFF7E2FF0120FFF714
:10144000DFFF0220FFF7DCFFBDE808400320FFF7C5
:10145000D7BF0000032813B5044603D90B495F200A
:1014600000F062F80A4B01A81B5D0193FFF7B0FF83
:101470000199D0F8043501228A4022EA0301134081
:10148000C0F80815C0F80C3502B010BD7A1700007E
:10149000B6170000F7B5C207044612D5134E002553
:1014A000032716F8013B019301A8FFF791FF019B69
:1014B000013503F5E073042D40F82370F1D1FFF7F7
:1014C000B9FFA30710D50A4D00240C2615F8013BDF
:1014D000019301A8FFF77CFF019B013403F5E07342
:1014E000042C40F82360F1D103B0F0BDB617000022
:1014F000B217000072B6094B1B68DB0700D500BEAF
:10150000BFF34F8F0649074BCA6802F4E0621343EA
:10151000CB60BFF34F8F00BFFDE700BFF0ED00E0F1
:1015200000ED00E00400FA0507B5ADF800000191F8
:101530006A46002144F20200FFF7DCFF03B05DF8C9
:1015400004FB000070B50120094DFFF7A3FF45F033
:10155000010500242046FFF77DFF4FF4FA764FF493
:101560007A40A847013EFAD10134042CF2D1F0E7C9
:10157000C0170000054B1B68082B01BF044B1868FF
:10158000B0FA80F0400918BF002070473001001009
:101590003401001008B54FF080430022C3F80C213D
:1015A000C3F81021C3F838254FF0805203F54043AB
:1015B000D2F80414C3F82015D2F80814C3F824157F
:1015C000D2F80C14C3F82815D2F81014C3F82C154F
:1015D000D2F81414C3F83015D2F81814C3F834151F
:1015E000D2F81C14C3F84015D2F82014C3F84415DF
:1015F000D2F82414C3F84815D2F82814C3F84C15AF
:10160000D2F82C14C3F85015D2F83014C3F854157E
:10161000D2F83414C3F86015D2F83814C3F864153E
:10162000D2F83C14C3F86815D2F84014C3F86C150E
:10163000D2F84424C3F87025FFF79CFF10B1384B53
:10164000384A1A60FFF796FF18B1374BFB22C3F8F0
:101650001825FFF78FFF48B13449354B0A681B68DE
:1016600022F00F0203F00F0313430B60FFF782FF1A
:1016700018B1304B4FF400721A604FF08043D3F82A
:101680000024D20744BF6FF00102C3F800242A4AA5
:10169000D2F8883043F47003C2F88830BFF34F8F1C
:1016A000BFF36F8F4FF01023D3F80022002A03DB23
:1016B000D3F80432002B2FDA204B0122C3F8042583
:1016C000D3F80024002AFBD04FF010221221C2F8D8
:1016D0000012D3F80024002AFBD04FF0102312226E
:1016E000C3F80422154B1A46D3F800140029FBD086
:1016F0000021C3F80415D2F80034002BFBD0BFF34F
:101700004F8F0D490E4BCA6802F4E0621343CB6061
:10171000BFF34F8F00BFFDE70A4B0B4A1A6008BDAD
:101720008C5600404881030000F00040E40E004069
:10173000580200104096024000ED00E000E0014039
:0C1740000400FA05080000200090D0030F
:10174C002E2E2F2E2E2F2E2E2F2E2E2F2E2E2F2EA8
:10175C002E2F6D6F64756C65732F6E7266782F68A3
:10176C00616C2F6E72665F6770696F2E68002F68F0
:10177C006F6D652F68796C692F3031375F53444B2F
:10178C005F6E5246355F31362E302F636F6D706F42
:10179C006E656E74732F626F617264732F626F610A
:1017AC007264732E63000B0C18190D0E0F100000D1
:0A17BC00000000000338FDD870475C
:0417C8000090D003BA
:040000030000137571
:00000001FF
